:0200000460009A
:100000004643464200000156000000000103030081
:1000100000000000000000000000000000000000E0
:1000200000000000000000000000000000000000D0
:1000300000000000000000000000000000000000C0
:1000400000000000010408000000000000000000A3
:100050000000800000000000000000000000000020
:100060000000000000000000000000000000000090
:100070000000000000000000000000000000000080
:10008000EB04180A063204260000000000000000FD
:10009000050404240000000000000000000000002F
:1000A0000000000000000000000000000000000050
:1000B0000604000000000000000000000000000036
:1000C0000000000000000000000000000000000030
:1000D00020041808000000000000000000000000DC
:1000E0000000000000000000000000000000000010
:1000F0000000000000000000000000000000000000
:10010000D8041808000000000000000000000000F3
:100110000204180804200000000000000000000095
:1001200000000000000000000000000000000000CF
:10013000600400000000000000000000000000005B
:1001400000000000000000000000000000000000AF
:10015000000000000000000000000000000000009F
:10016000000000000000000000000000000000008F
:10017000000000000000000000000000000000007F
:10018000000000000000000000000000000000006F
:10019000000000000000000000000000000000005F
:1001A000000000000000000000000000000000004F
:1001B000000000000000000000000000000000003F
:1001C000000100000010000001000000000000001D
:1001D000000001000000000000000000000000001E
:1001E000000000000000000000000000000000000F
:1001F00000000000000000000000000000000000FF
:10020000FFFFFFFFFFFFFFFFFFFFFFFFFFFFFFFFFE
:10021000FFFFFFFFFFFFFFFFFFFFFFFFFFFFFFFFEE
:10100000D100204301140060000000000000000037
:10101000201000600010006000040160000000006B
:1010200000000060FC0F010000000000FFFFFFFF58
:10103000FFFFFFFFFFFFFFFFFFFFFFFFFFFFFFFFC0
:10104000FFFFFFFFFFFFFFFFFFFFFFFFFFFFFFFFB0
:10105000FFFFFFFFFFFFFFFFFFFFFFFFFFFFFFFFA0
:10106000FFFFFFFFFFFFFFFFFFFFFFFFFFFFFFFF90
:10140000794B4FF42A01794A79482DE9F0475A641B
:101410001864784A99639546BFF34F8F764A03F56F
:101420003033764908208A42C3F854010FD0744BF8
:101430009A420CD2D4430846234423F003030433D6
:101440000B4450F8041B984242F8041BF9D16D4A32
:101450006D498A420FD06D4B9A420CD2D443084654
:10146000234423F0030304330B4450F8041B984235
:1014700042F8041BF9D1664A664B9A420BD2D0431C
:1014800011460024034423F003030433134441F8BA
:10149000044B8B42FBD1604A4FF4700100235F4C38
:1014A00011605F4A44F823200133B02BFAD15D4B21
:1014B00080215D4A03F8011B9342FBD15B4D4FF045
:1014C00080385B494FF0FF325A4B0026DFF8A0A16D
:1014D000DFF8A0911C60C5F80481C5F800A1C5F82B
:1014E000F480C5F8F0900B68534F43F4E0230B6091
:1014F000FB693D4923F07F0343F04003FB617B6AB6
:1015000023F07F0343F040037B628A66CA660A6762
:101510004A6700F0B1F8494A494B6320A2630321AE
:10152000E363484A484B106000F160401E6042F897
:10153000041C00F6A1704549454AC3F8082D0B6804
:10154000444A43F080730B601368434943F001033E
:10155000136003680B6000F0DFFAC5F804813F48B0
:10156000C5F800A1C5F8F480C5F8F09000F03CFC87
:10157000F96E3B4A41F440513A4BF9661660C2F8A5
:101580000861C2F81861C2F82861C2F838619A6B24
:10159000D20708D442F61562334959651A659A6B29
:1015A00042F001029A632F4A304C936843F00113D2
:1015B000936000F0D3F800F02FFC2368132BFCD9C4
:1015C00000F06AFB00F0DEFB00F012FC00F0D6FA3F
:1015D00000F02EFC2368B3F5967FFBD300F010FCDF
:1015E00000F01EFC30BFFDE700C00A40AFAAAAAA67
:1015F000070020000000072000000000181F006006
:1016000058CC00000000002074EB0060D0140020D3
:10161000D0140020C042012088ED00E00028012005
:101620003162000000E400E0A0E400E000800D4032
:1016300024ED00E008ED00E000C00F40ED76000072
:10164000F176000014E000E018E000E0FCED00E0BE
:1016500000002020001000E0381E01200046C323B7
:101660000040084000400D400000C056401E0120D0
:101670001B1018200C0D1113F0B5244A0020244B28
:101680004FF0100C234C1126DFF8C8E01227206021
:101690000125C2F800C0C3F800E01660DFF8B8E02A
:1016A0001D4EC3F800E01D4917601E6041F0150192
:1016B0001B4F1C4E17601E601B4F1C4E17601E6098
:1016C0001B4F11601B4E1C491F6016601B4F196099
:1016D0001B4E1C4917601E601B4F11601B4E1C499E
:1016E0001F60166019602560BFF34F8FBFF36F8FC7
:1016F000C3F8B001BFF34F8FBFF36F8F52F8883C30
:1017000043F4403342F8883CF0BD00BF9CED00E05C
:10171000A0ED00E094ED00E009001000C0420120BF
:1017200013002000210002071400002025000813E8
:10173000090000101600202027000B13170000409E
:1017400033001013180000602F000B071900007001
:101750002F000B133F00001025000803F0B58D4B40
:1017600018228D4E01208D4948F20C7E8C4D4FF091
:10177000FF378C4C83B0C3F85C12C3F8605200256D
:10178000C3F86412C3F868424FF40054C3F86C62A3
:101790008549C3F87062C3F87462C3F87862834EF7
:1017A000DA661A675A679A67DA67C3F88020C3F85F
:1017B0008420C3F8882040F20562C1F82C03C1F8E8
:1017C0003003C1F83403C1F83803C1F83C03C1F851
:1017D00050032946B36976481840764B0343764850
:1017E000B361D6F8843043F00C03C6F88430022687
:1017F000036833430360036803EA0E0E6F4B4EEA3F
:101800000303DFF8F0E103606D4B4760DEF808701A
:101810003B406C4F43F000538360C36823F0780370
:10182000C360036A1F40684B3B43664F0362036A11
:101830001F40654B3B43654F43628762C762DEF8DA
:10184000B830634F23F03F0343F00103C0F8B830D2
:10185000DEF8BC30DFF884E123F03F0343F00103FE
:10186000C0F8BC30056104660767C0F88020446694
:101870004767C0F884200468564B24F00204564A97
:101880000460C0F818E0C66143F8041B9342FBD122
:10189000494B1A68194642F001021A600B68464A21
:1018A00013F00103FAD14D4E022540F2F56440F2E7
:1018B000664040F299414A4F966142F20146D56135
:1018C00040F23545C2F8004242F20124C2F810024B
:1018D0000120C2F820121146C2F8307207F15A47AF
:1018E000C2F8346207F51377C2F840523D4E3E4DC0
:1018F000C2F85072C2F85462C2F86052C2F8644230
:10190000C2F8A030C2F8A430C2F8B0004B692A4A2D
:10191000DD07FBD5012300244FF4803011465361CD
:10192000C2F8A040C2F8A400C2F8B0304B69224A05
:10193000DC07FBD5012300244FF40030114653612E
:10194000C2F8A040C2F8A400C2F8B0304B691A4AED
:10195000D807FBD501230024244811465361C2F85F
:10196000A040C2F8A400C2F8B0304B69124ADB07AD
:10197000FBD5D2F8003145F60D5121209BB25061C4
:101980008B4239D01A4B00221A605A609A60DA6092
:1019900003B0F0BD00801F40F9700100F9B00100F4
:1019A000F9100100F900010000841F4000C00F4041
:1019B000FFFCFF1F000300A000402A401200FFFFB1
:1019C000FF37F70000FFF07C40000080FF000F832E
:1019D0006300020000422A4000432A40F05AF05AB5
:1019E0009F041830063201263806180A0400030046
:1019F0000024012000802A4000244FF4802001238D
:101A00001146C2F8A040C2F8A400C2F8B0304B6939
:101A10003B4ADF07FBD501234FF4000400201146A9
:101A20005361C2F8A040C2F8A400C2F8B0304B69BC
:101A3000334ADE07FBD501234FF400044FF4803016
:101A400011465361C2F8A040C2F8A400C2F8B030F9
:101A50004B692B4ADD07FBD501234FF400044FF4FB
:101A6000003011465361C2F8A040C2F8A400C2F889
:101A7000B0304B69224ADC07FBD501234FF4000448
:101A8000204811465361C2F8A040C2F8A400C2F831
:101A9000B0304B691A4AD807FBD5D2F8003145F669
:101AA0000D5121209BB250618B4210D0164B082261
:101AB0004FF400041A7015490020154A01230090C4
:101AC000521A1448224400F0A3F903B0F0BD4FF4B9
:101AD00000044FF4802101231046C2F8A040C2F850
:101AE000A410C2F8B03043690549DB07FBD50120DB
:101AF000054B10224FF0807448611A70DBE700BF7D
:101B000000402A4004000300441E01200000007031
:101B10000000007000240120F0B4174A40274FF461
:101B200080314FF480564FF400554FF4404443F257
:101B30004200136913F0020F06D094615161906165
:101B4000136913F0020FF8D113F4005F01D155614E
:101B5000EFE713F4805F01D15661EAE7002BE8DA82
:101B600013F4803F01D09161E3E75B0601D4576134
:101B7000DFE7F0BC704700BF00800D403B4AF3EE4A
:101B8000096A3B4900201368F0B523F001030324E0
:101B9000DFF800E113601461D1F8E030354FDDB2B9
:101BA000C3F30B24344EC4EB135307EE905AA5F144
:101BB0005501CEF80050B8EEE77A03EB830507EE47
:101BC000904A03FB01F13B6003EB8313B8EEE75A45
:101BD00007EE901A491B77EE666AB8EE677A274DD2
:101BE00007EE901A0B44C5ED006AF8EE677A346090
:101BF000C7EE265A17682249224D234C234E87EE02
:101C0000A66A07EE903AF8EE677A87EEA67A75EE46
:101C1000855A76EE056AFCEEE55AFCEEE66A15EEAC
:101C2000903A47EA035316EE907A77EE057A1360FE
:101C300001EA0741D2F81031FCEEE77A0B43C2F813
:101C4000103117EE903AD2F81011C3F30B030B4387
:101C5000C2F81031136843F0020313602870C4F80F
:101C600040610B4B01221A60F0BD00BF80810D4026
:101C700000441F40501E0120541E01204C1E012014
:101C80000000FF0F40E400E000280120FD63000099
:101C900008E100E0481E0120304B40F6617270B54B
:101CA000C3F8202140F2044500F0AEF82C492D483D
:101CB000D1F880202C4C42F003022C4BC1F880203C
:101CC000C0F86051226813401BB9D0F8A8319A07B8
:101CD0001AD0244B4FF00041234A51631A46D3F8DF
:101CE000401141F00201C3F84011D2F840319B0786
:101CF000FBD44FF400301E491B4B4FF000420860EC
:101D000019209A6300F090F81A4D0022164B4FF0FC
:101D10008041144C0A26996328461A601146C4F87B
:101D2000A8614FF4207200F067F84FF4810640F28A
:101D300043114FF48000104B104A2E602864C4F801
:101D40005851C4F84811C3F804220D4A4FF4003129
:101D500001231160C4F8403170BD00BF00800D4008
:101D600000C00F4000002E4000900D40001C1E00DF
:101D70008CE200E00040012000280120A565000061
:101D80000CE100E0114B1249D86E0A4640F4403095
:101D900030B4D86640F23765D86EA02440F4407065
:101DA000D8664D648C64936C1B06FCD4094B40F2DE
:101DB0003760A0211A4658649964936C13F080032D
:101DC000FBD1054A137030BC704700BF00C00F4004
:101DD00000400C4000800C40B9200120F8B500BF45
:101DE000F8BC08BC9E4670475FF800F01177000011
:101DF0005FF800F0D57900005FF800F0659600000C
:101E00005FF800F02D8F00005FF800F05D6D0000BE
:101E10005FF800F0117D00005FF800F0C163000082
:101E20005FF800F0956000005FF800F08D5E000044
:101E30005FF800F0C563000045000000A55D0000EC
:101E40001603550053004200200053006500720045
:101E5000690061006C000000180354006500650013
:101E60006E00730079006400750069006E006F00F9
:101E70000403090409024B00020100C032080B00F0
:101E8000020202010009040000010202010005240F
:101E900000100105240101010424020605240600A6
:101EA000010705820310001009040100020A000066
:101EB00000070503024000000705840240000000FF
:101EC00009024B00020100C032080B0002020201AD
:101ED00000090400000102020100052400100105B0
:101EE00024010101042402060524060001070582DD
:101EF0000310000509040100020A000000070503A1
:101F00000200020007058402000200000A06000227
:081F1000EF0201400100010095
:101F180000000000000000000000000000000000B9
:101F280000000000000000000000000000000000A9
:101F380010B5054C237833B9044B13B10448AFF3FB
:101F480000800123237010BDD01400200000000081
:101F580054CC0000084B10B51BB108490848AFF332
:101F680000800848036803B910BD074B002BFBD05D
:101F7800BDE81040184700BF00000000D41400203E
:101F880054CC0000D0140020000000000378FF2B80
:101F980004D05A1C03440270D9707047022383701E
:101FA800704700BF437833B1013BDBB2C2184370BE
:101FB800D37818467047012282701846704700BFD0
:101FC800037833B1013BDBB2C2180370D3781846EB
:101FD8007047012282701846704700BF425470470C
:101FE800405C704701F00F0110B44418627101227F
:101FF800036A5DF8044B184738B5054601F00F042D
:102008000022036A21462C449847607938BD00BFF6
:10201800B0F8103243FA81F1A0F81012704700BFEF
:10202800B0F81012D0F808224B1CA0F81032137820
:10203800FF2B0AD010B400F21224581C1344615C20
:102048001070D9705DF8044B704702239370704785
:102058000278FF2A10D0531CDBB230B4FF2B00EB00
:1020680002044FEA21250370E57008D002320344C8
:102078000270D97030BC7047022383707047022306
:102088008370F7E770B5064D06462B6898472B68AE
:10209800044630469847000250FA84F080B270BD7A
:1020A800F01400204B1C10B49BB214124454C254B8
:1020B8005DF8044B704700BF4B1C425C9BB2C35C8D
:1020C80003EB022080B27047F8B516460C4601F0C3
:1020D8000F0101223712054643185F71036A9847BA
:1020E80058B1611C2846012201F00F016B185E717E
:1020F8002B6A9847003018BF0120F8BDF8B501F0E9
:102108000F060C460022036A314605469847631CB1
:102118002E442F6A03F00F042846767900222146C0
:102128002C443602B8476079304480B2F8BD00BF0D
:10213800A0F81012704700BFF0B5B0F81042D0F800
:102148000812651CADB2A0F810520A78FF2A1AD0FE
:1021580000F21226531C8F1816F804E0DBB2745DE7
:10216800FF2B0B7004EB0E24A4B24FEA2426FE705A
:1021780009D00B4402320A70DC70B0F81032013317
:10218800A0F81032F0BD02238B70B0F81032013382
:10219800A0F81032F0BD00BF00207047704700BFA4
:1021A800006910B103689B6A18477047006910B14D
:1021B8000368DB6A18477047006910B103681B6938
:1021C80018477047006910B103689B6918474FF0BA
:1021D800FF307047006910B10368DB681847704723
:1021E800006910B10168096B0847704710B40069AD
:1021F80020B10468616B5DF8044B08475DF8044B37
:10220800704700BF006910B103689B6B1847002036
:1022180000217047006910B10368DB6B1847002084
:1022280000217047006910B103681B6C184770479C
:10223800006910B103685B6C18477047006910B1FA
:1022480003689B6C18470148704700BF680100206D
:10225800006910B10368DB6C1847704738B50B6923
:1022680004462BB11D6819462B6D9847204638BD8A
:102278004FF47A70064A23712373A06022600B69B9
:102288002361002BF2D01A69204601321A6138BD49
:1022980074000020006910B103685B6D184770472F
:1022A800006980B10368012200B583B09B6A0DF113
:1022B8000701984720B19DF8070003B05DF804FBBB
:1022C8004FF0FF30F9E74FF0FF30704710B582B09C
:1022D8000468012202AB03F8011D1946E36A984716
:1022E80002B010BDC36D0BB101207047006E003005
:1022F80018BF0120704700BF0120704710B5044681
:10230800064907482369224605F038FD206920B1AF
:102318000368BDE810405B6A184710BD380100200B
:10232800B40A00202DE9F0410A460546114908265D
:102338001148DFF85080114F05F020FDA6F1080480
:10234800E4B229782B190C48A14214BF41463946FA
:102358000134DA78E4B205F011FDA642F1D108366D
:1023680007490548F6B205F009FD282EE6D1BDE873
:10237800F08100BF64010020B40A0020540100204D
:10238800140200205C010020024602490248136939
:1023980005F0F4BC6C010020B40A002010B5044616
:1023A800406E18B108F07AFD0023636604F124003A
:1023B800BDE8104004F0F4BB2DE9F041002394B0CF
:1023C8004FF47A74264F1A460546243104A88DF82E
:1023D80004308DF80C30129313930294009704F094
:1023E80033FC129B002B31D06820002605F07CFEC0
:1023F8009DF8043004461B4A4FF47A78243023763B
:1024080004A9029B2260E361174A9DF80C306261BF
:1024180084F82030267126732661C4F8088004F0F9
:102428007DFB2369114A0133676166662E71C5F821
:1024380008802E732C6123612A600D4B04A8009339
:1024480004F0AEFB284614B0BDE8F081139B002BC6
:10245800CAD1064A2B71AC602B732B612A60ECE75A
:1024680050000020D4000020080000207400002044
:102478002C00002032B902292DD0032924D00123B1
:102488001846704702390D29F9D801A353F821F0ED
:10249800E7050000D90500006F0500006F05000082
:1024A8006F0500006F0500006F0500006F05000054
:1024B8006F0500006F0500006F0500006F05000044
:1024C800F3050000D30500000268012392F80321F8
:1024D800027218467047026801231278C2711846C2
:1024E800704700231846704702680123017A18468E
:1024F80082F80311704702680123C17918461170E8
:10250800704710B5044606490068FFF70BFF2068BE
:10251800044900F20310FFF705FF0123184610BD18
:102528008C0100209C010020826C62B1137803F0BA
:10253800080303F0FF000BB3D3695069181A48BFAA
:102548006FF000407047C16CC9B191F8313003F0A9
:10255800080303F0FF008BB1D1E90423D1E900019E
:1025680030B4101A4FF000056FF0004463EB01011E
:102578008D4208BF844200D2204630BC70470846CE
:10258800704700BF836C13B1184603F065B8C06C80
:1025980008B101F07DBA4FF0FF307047836C00B589
:1025A80083B063B1184601220DF1070102F086FFDE
:1025B80001280CD19DF8070003B05DF804FBC06C3E
:1025C80028B101220DF1070101F088F9F0E74FF079
:1025D800FF30F1E7836C13B1184603F09FBAC06C63
:1025E80008B101F01FBF704700B5836C83B08DF848
:1025F800071043B1184601220DF1070103F0D0FA84
:1026080003B05DF804FBC06C0028F9D001220DF17D
:10261800070102F00FF903B05DF804FB2DE9F04F54
:10262800037885B00446A0F81012F82B01D9F823D6
:1026380003704B1C2144DFF80883A4F8103291F88A
:102648001252002D00F0B580690604F2031358D524
:102658002A06C4F80C42C4F8083258D4A54BDFF84F
:10266800E0B2C8F80030AB06A34F5CD5DFF8D4A2BF
:10267800A248A34EA349DFF8D0C2DFF8D0E2A24BAC
:10268800A24ADFF8CC92C7F800A03060DFF8C4A2F5
:102698009F481960C2F800C09E49DFF8BCC2C9F85B
:1026A80000E0CAF80000DFF8B4E29B48C1F800C0B7
:1026B800CEF8000005F01F0001381E2800F2CF8177
:1026C800DFE810F0C201BD01B501A6019B018B0135
:1026D8006C0154010001E700CE00C300B00068029D
:1026E8005E024B02380221020A02EE01D201C70241
:1026F800AD029C028B02FA02DF029F007B005500AC
:102708000E032A06C4F80842C4F80C32A6D5D4F839
:102718000832824ADFF828B2C8F800201A78764FC3
:102728005A70AB06A2D47E48754E3860DBF80000BC
:102738007C49DFF82CC2DFF82CE2734B734ADFF8D0
:102748001092DFF810A2306077481960C2F800C014
:102758007049DFF814C2C9F800E0CAF80000DFF8D1
:10276800FCE17248C1F800C0CEF80000A2E7336867
:10277800D4F80802984781463368D4F80802984785
:1027880089EA00013B6889B2D4F808029847A6781C
:1027980036BB94F80531002B40F0BA82B4F8101219
:1027A8004B1C2144A4F8103291F81252002D7FF4EA
:1027B8004BAF012005B0BDE8F08F3368D4F80802AC
:1027C800984781463368D4F80802984749EA0001D7
:1027D8003B6889B2D4F808029847A678002ED8D06A
:1027E800B4F81022013E524B019253F8263000955E
:1027F800504A5149514805F0C1FA002005B0BDE8DA
:10280800F08F3368D4F80802984781463368D4F8C3
:102818000802984709EA00013B6889B2D4F808021F
:102828009847B4E73368D4F8080203919847DBF86F
:1028380000300646D4F80802984703990028A6D025
:102848000B68204631469847A1E73368D4F8080258
:102858000391984703990B6801462046984796E7E5
:102868003368D4F80802984733680746D4F8080252
:102878009847D4F808221378FF2B00F02E8287425D
:1028880003F10101134494BF002701271170DF7081
:102898007DE73368D4F80802984733680746D4F8C8
:1028A80008029847D4F808221378FF2B00F0158205
:1028B800874203F1010113442CBF0027012711703F
:1028C800DF7064E73368D4F808029847336807462E
:1028D800D4F808029847D4F808221378FF2B00F0A0
:1028E800FC813F1A03F10101134418BF012711703D
:1028F800DF704CE7B1000000681901207501000085
:1029080008150020950100006019012064190120B4
:10291800ED010000001500202902000095000000CC
:102928007D000000CD000000E9000000110100005A
:102938002C0100208C010020AC010020B40A0020EA
:10294800F014002041010000A9010000B9010000B5
:10295800F41400200415002021020000F8140020BF
:10296800D1000000D5000000010100003368D4F850
:102978000802984733680746D4F808029847D4F8FD
:1029880008221378FF2B00F0A8813F1A591C134422
:10299800B7FA87F711707F09DF70F8E63368D4F863
:1029A8000802984733688146D4F808029847824657
:1029B8003368D4F808029847514606463B68D4F86D
:1029C8000802984749463B68D4F8080298473146B8
:1029D8003B68D4F808029847D9E63368D4F8080267
:1029E800984733688146D4F8080298473B680646FA
:1029F8000146D4F808029847E4E73368D4F8080297
:102A0800984733688146D4F8080298470646D9E7BC
:102A18003368D4F80802984781463368D4F8080226
:102A2800984749463B68D4F808029847AFE63368A8
:102A3800D4F8080298473B6806460146C4E733685D
:102A4800D4F808029847A2E63368D4F808029847F1
:102A5800411C3B6889B2D4F80802984797E6DEF82B
:102A680000302046984792E6D4F80892DBF8002018
:102A7800484603939047DBF80020074648469047AE
:102A880032680602D4F808029047039B56FA87F684
:102A980002461B6804F21220B6B23146984776E621
:102AA800D4F80892DBF80030484603929847DBF8E0
:102AB8000030064648469847039A0102D4F808921F
:102AC800136804F2122051FA86F13F6889B29847D8
:102AD80001464846B8475AE6DBF80020D4F8080211
:102AE8000393904732680746D4F808029047B4F831
:102AF8001012039B024641FA87F104F212201B6868
:102B080089B2984743E6DBF80030D4F8080203920C
:102B18009847B4F81012039A41FA80F1D4F8089251
:102B2800136804F2122089B23E6898470146484665
:102B3800B0472CE6DBF80020D4F80802039390474E
:102B480032680746D4F808029047039B0246394684
:102B58001B6804F21220984719E6DBF80030D4F815
:102B6800080203929847039A0146D4F8089204F29F
:102B7800122013683E68984701464846B04706E663
:102B88003368D4F8080298473B680146D4F80C0229
:102B98009847FCE53368D4F8080203919847D4F8BD
:102BA8000C6203993278FF2A00F0C380531CB4F8F2
:102BB80010E2B718DBB24FEA2E2CFF2B337087F8E0
:102BC80003C000F0B68002323344327083F803E069
:102BD8000B68014620469847D9E53368D4F80802BF
:102BE800984781463368D4F808029847C9EB000132
:102BF8003B6889B2D4F808029847C8E53368D4F826
:102C08000802984781463368D4F80802984709EBC8
:102C180000013B6889B2D4F808029847B7E5DBF8A9
:102C28000030D4F80802984707463368D4F80802F9
:102C3800984702463B114048D9F80060F9B203EBC7
:102C4800C30304EB83031844B04700287FF49FAD07
:102C5800AFE5DBF80030D4F808029847014636485B
:102C68000B113E68D4F80872C9B203EBC303DAF853
:102C7800002004EB83031844904701463846B047C8
:102C880085E53368D4F80802984781463368D4F854
:102C9800080298470346B9F1000F05D1D4F8082275
:102CA80003214FF0010991703A68D4F80802B3FB88
:102CB800F9F189B290476AE53368D4F80802984771
:102CC80081463368D4F80802984719FB00F13B683D
:102CD80089B2D4F80802984759E50223937056E55B
:102CE800DBF80030D4F80802984781463368D4F8F6
:102CF8000802984709F00F03C9F303113A6840FA2C
:102D080003F3D4F8080203FA01F189B290473EE5CB
:102D1800B4F81022013B0949019251F8233000957B
:102D2800074A0849084805F029F8304605B0BDE8C3
:102D3800F08F0223B3704BE7140201002C0100202E
:102D48009C010020AC010020B40A002038B5446E74
:102D58000CB1204638BD05464FF4807008F096F84F
:102D68000146686680B1E86D0C7028B14FF4807236
:102D780003F05CF86C6EECE7286E40B14FF480729B
:102D880000F0C4FC6C6EE4E7024C6C66E1E70C46AC
:102D9800DFE700BFEC140020C36D9BB11A7812F076
:102DA800700F00D1704710B504460021184602F094
:102DB800A9FD206E28B100220023BDE8104000F0D4
:102DC8007DBE10BD006E0028ECD090F8313013F0B5
:102DD800500FE7D00022002300F070BED0B5C46DBC
:102DE8008CB1012B08BF002A01D30020D0BD1146A9
:102DF800204602F087FD0028F7D0204602F094FE16
:102E08000028F2D0D0BD046E002CEED0204600F091
:102E180055FE0028E9D02046BDE8D04001F098BC16
:102E2800012908B509D032B1072904D9084401217C
:102E3800053006F079FA012008BD4279837903EB61
:102E480002238383012008BDC36D13B15869002193
:102E58007047036E13B193E803007047184619468C
:102E6800704700BFC36D13B1D86900217047036E66
:102E780013B118695969704718461946704700BF59
:102E8800C36D13B1184602F019BB006E08B100F00B
:102E980025BD4FF0FF307047C36D13B1184602F0DF
:102EA800DBBB006E08B100F0F3BD4FF0FF30704798
:102EB800C36D33B11B7813F0700F14BF01200020CD
:102EC8007047006E30B190F8313013F0500F14BFD6
:102ED80001200020704700BFC36D13B1184602F0EF
:102EE8001DBE006E08B101F09DBA7047C36D13B1E5
:102EF800184602F055BE006E08B101F09BBC704741
:102F0800836C13B1184602F04BBEC06C08B101F0D7
:102F180091BC7047C26D62B1137803F0080303F0E7
:102F2800FF000BB3D3695069181A48BF6FF000400F
:102F38007047016EC9B191F8313003F0080303F00E
:102F4800FF008BB1D1E90423D1E9000130B4101A94
:102F58004FF000056FF0004463EB01018D4208BF9C
:102F6800844200D2204630BC70470846704700BFF4
:102F7800D0B4039C16461F4634B1012C1ED0022C37
:102F88000DD00020D0BC7047C46DDCB1012B08BF48
:102F9800002AF6D220461146D0BC02F0B3BCC36D5D
:102FA800B3B1DA69B61847F10007012F08BF002E40
:102FB800E7D231461846D0BC02F0A4BCC36D93B129
:102FC8005A69EFE7006E0028DBD0D0BC00F076BD70
:102FD800036E002BD5D01846D3E9042392197B4100
:102FE800D0BC00F06BBD036E002BCAD01846D3E9E5
:102FF800002392197B41E8E7084B026910B50446A3
:10300800036042B11369013B136123B9006910B130
:1030180003681B6A9847204610BD00BF7400002053
:1030280038B5154A0446C36D00F124050260F3B1B2
:10303800284603F0B5FD606E08B107F02FFF0F4B6F
:103048002846636103F0ACFD0D4B2269236042B151
:103058001369013B136123B9206910B103681B6A26
:1030680098472046682105F041F8204638BD036E90
:10307800002BDDD1DFE700BFD40000202C000020AA
:10308800740000200A4B026910B50446036042B17F
:103098001369013B136123B9006910B103681B6A06
:1030A80098472046142105F021F8204610BD00BF9E
:1030B8007400002038B5134A0446C36D00F1240596
:1030C8000260D3B1284603F06BFD606E08B107F0CB
:1030D800E5FE0D4B2846636103F062FD0B4B226948
:1030E800236042B11369013B136123B9206910B110
:1030F80003681B6A9847204638BD036E002BE1D150
:10310800E3E700BFD40000202C000020740000205A
:103118001AB101F0FD030D2B01D0012070472DE9F4
:10312800F04F05464C1E9BB00E466F1DA4B2817B26
:103138000D2E3C5D44F20223427B08BF0023049419
:10314800BC5D01EB022280690594EC7B10FA82F2E7
:10315800494906A802942C7C95F80980039495F8AF
:103168000AA0EF7A95F80CB003F006FE189B002B26
:1031780074D068204FF0000904F0B6FF9DF81C20B9
:1031880004463E4B4FF47A703D492276089AA06077
:1031980004F12400E2619DF8242021600AA96361FA
:1031A80084F8202084F8049084F80C90C4F81090D7
:1031B80003F0B4FC2269334B0AA801323249C4F83F
:1031C800649022616361069103F0EAFC226820465C
:1031D800526C904768B92369E871013B28722361F2
:1031E8001BB9236820461B6A984701201BB0BDE81D
:1031F800F08F0BEB072721680AEB0828CDF8009021
:10320800BFB2496B204607EB0842D317884710B373
:10321800039B0D2E029A2046049903EB0222059B7C
:1032280003EB01292368A96992B21FFA89F90CBF37
:103238009B6ADB6A49449847C0F30727C6B22368EC
:1032480020461B6C98472369EF71013B2E7223615E
:10325800002BC6D0C9E706460746F0E7199C002CA4
:1032680087D1094B0AA8069303F09AFC0120EC7158
:103278002C721BB0BDE8F08F8019012008000020D7
:10328800D4000020500000202C0000202D492E4A98
:103298002DE9F04340F2EE279FB00C682B4E2C4DE1
:1032A80013783BB13378D80704D50B6828681B1A04
:1032B8000E2B07D80B6810781B1B00283FD0B3F5DE
:1032C800FA6FEDD91378002BFCD03378DB07F9D5EA
:1032D8000B6828681B1A0E2BF4D90F211D4806F01D
:1032E80023F81D4804F032FD00264FF00A0E1B4F4C
:1032F80001AA04AC8DF804E007AB8DF805600396CD
:103308000297174D07CA84E807008DF810E08DF87A
:1033180011600597069694E8070083E80700284699
:103328000ECB03F07DFEEC7D45F8105CE4B11C216A
:103338000C4805F0F9FF084804F008FDFEE7BB4219
:10334800AED9BFE7401E0120901E0120E81F0120D2
:103358008842012020020020B40A00200024F40042
:103368001C1E0120CC0100202946A5F29C4003F038
:103378009DFC0028DBD01621A24805F0D5FFA24805
:1033880004F0E4FC2146A14AA14802F8011F824248
:103398004FF00003F9D19F4C10279F4E202504F2CF
:1033A80012229E49A355383662504831A2514836F8
:1033B80062504831A251483662504831A2514836CD
:1033C8006250D039A2514FF03009954E4FF0400865
:1033D80094484FF0600C66500831245050206754D0
:1033E8001C31914F702604F5823EE4518F4F67508F
:1033F8000831802765541C318D4D64518D4D6550C1
:10340800083104F8019004394FF0900964502031D4
:103418006550083104F8018004394FF0A008645061
:1034280020316550083160540439B020645020318F
:103438006550083104F801C004394FF0C00C6450DD
:103448002031655008316654AEF5E4717A4EA451C6
:103458007A4E31607A4965501C31CEF80020DFF889
:1034680024E26250D02144F80E200EF1240E44F8D4
:103478000E200EF1240E44F80E200EF1240E44F80E
:103488000E200EF1480E44F80E200EF1240E44F8DA
:103498000E204FF0E00E6B4AA754043AF027A450D0
:1034A8002032A550083204F80290043AA450203281
:1034B800A550083204F802801C32DFF8CC8144F8A9
:1034C8000840DFF8C88144F802800832A054043A62
:1034D8000AA8A4502032A550083204F802C01C32B1
:1034E800DFF8ACC1A550083244F80C40A1541C3296
:1034F8005549A550043264502831A450283204F8A4
:1035080001E01C31A75465500431504F6450504AB3
:103518005049E55103F030FC1C9B002B62D0682019
:10352800002704F0E1FD9DF82C3005464FF47A7130
:10353800494A243040F81C1C0EA92B760C9B2A60A3
:10354800EB61464A9DF834306A612F7185F8203066
:103558002F732F6103F0E2FA2B6941490EA801335A
:10356800404A6F6669612B610A9203F019FB2B6967
:1035780028462A6801332B61536C98472B69074604
:10358800013B2B611BB92B6828461B6A9847AFB1D2
:103598002B684FF47F42344928469B6A98472C4A47
:1035A8003249194804F0EAFB2B6828461B6C9847F7
:1035B8002B69013B2B6153B9012703E02B69013BC0
:1035C8002B61BBB92B6828461B6A984797B1284BD3
:1035D800E35C002B5ED0274B274A28490A4804F0B1
:1035E800CDFBFEE71D9B002B99D11E4B0EA80A931D
:1035F80003F0D6FA1F4B224A2049034804F0BEFBC9
:10360800FEE700BF30020020B40A00200B1500209E
:103618005F1901200C150020180201002C0201007E
:10362800650500001402010038020100110F0000B6
:103638005C020100E903000010030100FC140020F3
:103648003003010038030100E803010050040100C1
:10365800740A002080190120D400002008000020EE
:10366800500000202C0000201E180020EC01002033
:1036780028020100F801002018020020080200209A
:1036880000020020700301007C0301000112000009
:10369800C40301004FF480711148FEF7BFFF0028F2
:1036A80099D0104C0E4D2378BBB9376805F016FE3B
:1036B8003368F87159799B7903EB012189B219B9FB
:1036C800B5F810120029EED02378002BEBD104486E
:1036D800FEF7A4FF2378002BE7D01FB0BDE8F083E6
:1036E8000C150020341701200149024804F046BB9C
:1036F80048020020B40A002010B5044600F092FEEB
:10370800002384F8313084F8333010BD2DE9F043BC
:1037180000F1240385B081468846154601AE90F82D
:10372800314093E8070086E80700ACB399F83030D9
:10373800012B38D901270024012F3146D9F8200060
:1037480014BF2022402201F0C5FA012824D100220A
:103758003146D9F8200001F0A1FAE8B10378C12B6D
:103768001AD108EB040E04F10F0C30F8022F631C79
:103778003F21CAB1AB4217D27E2A1C4698BFD1B2AC
:1037880063450EF8011BF0D1013799F83020FFB2DC
:10379800BA4209D91C46CFE70023184688F80030FA
:1037A80005B0BDE8F08300240023204608F8043063
:1037B80005B0BDE8F08300BF90F831200AB10020C1
:1037C800704738B50D4611463822044607F0D2FE38
:1037D80040230120256284F8313084F8330038BD55
:1037E8002DE9F0410878202803D111F8010F20288D
:1037F800FBD0516008782F2864D0002862D05C285C
:1038080025D0A0F12204E4B21A2C23D94D1C00269D
:10381800DFF8C4E003E01A2C2EFA04F722D9A0F14D
:103828003E040136A0F1200CA846012C37460ED9DB
:103838007C280CD0BCF15E0F09D815F8010BA0F15B
:103848002204A0B12F28E4B211D05C28E3D10020D3
:10385800BDE8F081204D25FA04F4E507D6D500200F
:10386800BDE8F081FC07DAD50020BDE8F0812F28FB
:1038780001D0202823D1701C0844054610F8014BBC
:10388800202CFAD02F2CF8D01D609EB10F4417F8C9
:10389800013C202B01D02E2B0AD1731E19441E4641
:1038A8004BB111F8010D013B2E28F8D02028F6D095
:1038B800FF2ECCDC334613600120BDE8F081C3F84D
:1038C8000080E3E7202801D02F2802D100273E46B8
:1038D800D1E719600023EEE7010100052DE9F04F5B
:1038E80090F8333083B00546DE0760D55C060E4697
:1038F800914640F1BE80D5E90001D5E9042310EBDB
:10390800090A41F1000B5B4508BF5245C0F0B7807A
:10391800B9F1000F74D0AA464C4640F2FF17FAE8F6
:1039280006012B6AD3F8382402EA0008C8F3080B0A
:10393800B8F1000F6AD150EA010279D195F8312027
:1039480051064CBFD3F83414E969A9614FEA5820ED
:103958000239D3F82C24BC4293F845E4024401FA16
:103968000EF111442ED9BBF1000F2BD1D3F81C2234
:10397800914227D0B4F5806F61D34FF0010C4FEA24
:1039880054280CFA0EFEC0EB0E00804528BF804676
:1039980091423DD801EB0800824239D203F5047008
:1039A8000191009303F0E4FF009B019980BB95F817
:1039B80032304FF0FF3043F0020385F8323003B065
:1039C800BDE8F08F03F50470002203F0A1FF002882
:1039D800EDD0CBF5007800EB0B013046A04528BFB1
:1039E800A046424604F0E6FA404600214644D5E99E
:1039F800002380185941B4EB0804C5E9000190D1AF
:103A08000024C4EB090003B0BDE8F08FA9699DE765
:103A1800D3F8140232464346D0F800E0DEF810B07E
:103A2800D8470028C3D04FEA482800214046DDE7A0
:103A380095F83320520610D5A969013185E7D3F8E6
:103A4800140232460368DB6898470028AFD04FF469
:103A5800007000214FF40078C8E718465246A9695B
:103A680001F064F940B20028A1DB0BD02B6AA969E8
:103A78006CE790F8313018073FF53DAF48E7C0EBE9
:103A8800020945E795F8313013F0500FB9D18EE7A8
:103A9800F0B583B00122044685690DF10701D0E92C
:103AA8000067FFF71BFF0128A5610CBF9DF8070001
:103AB8004FF0FF30C4E9006703B0F0BD2DE9F04FC7
:103AC80090F831E085B004468569BEF1000F36D024
:103AD80016461F46D0E90001994208BF904265D0BA
:103AE80056EA070330D10023A3610120C4E9006727
:103AF80005B0BDE8F08F10F1FF3241F1FF3322FA33
:103B08000CFC03FA08F823FA0AFA50EA01034CEA13
:103B1800080C4CEA0A0C4BD0E34549D3CCEB0B0B11
:103B2800A94604F118085D464246002DDDD0A1697A
:103B3800013D206A01F0FAF80028F5D14D46002031
:103B4800A56105B0BDE8F08F1EF0080F27D1236AE4
:103B580016F1FF3893F845C447F1FF39C24603937D
:103B68000CF1090CCB4694F833905FFA8CFC19F0F1
:103B7800400FCCF120082AFA0CF2CDE900AB019BEA
:103B8800ACF1200A03FA08FB23FA0AF342EA0B0213
:103B980042EA030BAFD0E3695B44A361A5E7D4E92C
:103BA8000423BB4208BFB242C9D3D0E70120C8E70B
:103BB8001EF0400F02D1E369A361B1E7039BD3F87C
:103BC8003434F9E72DE9F04F9A4693B090F8313044
:103BD800054600922BB991F831300E4613F0500F7C
:103BE80008D10023184685F8313085F8333013B0F2
:103BF800BDE8F08F1C9B03F00303012B06D0022BBA
:103C080000F00981002BECD1012300E002231C9A6B
:103C180002F0080213430193009B002B00F0FD8083
:103C280018460022514601F0B9F996F83130029051
:103C38004BB1D6E90023134305D00021002200230D
:103C4800B161C6E900230AF10E03B8494FF0000933
:103C580081FB0321DA174C464F460B44C2EBE303C2
:103C6800DBB2039302335FFA83FB20220AA93046B2
:103C7800FFF734FE00283DD02028B2D19DF8283027
:103C88001A0666D4002C61D13268B169203A0791CE
:103C980008920134E4B26BB3C02B00F09380C12BBF
:103CA80062D0852BE1D138220021284607F062FC3A
:103CB8009DF82C309DF82920D806304685F830200C
:103CC80003F0370258BF42F0080285F83120336804
:103CD800316AB269203B29620AA96A622022AB6272
:103CE80096F83330C3F3801385F82C30FFF7F6FDD0
:103CF8000028C1D11C9B99057FF573AF019B9A07DA
:103D08007FF56FAF009B002B3FF46BAF5C450CD386
:103D180086E020287FF465AF24B93268B169203A7B
:103D280007910892DCB2A3457AD920220AA9304625
:103D3800FFF7D4FD631C0028EBD13046B76900F0CB
:103D4800A1FB00283FF44DAFB761ECE75C45A2D278
:103D58009FE7B9F1000F9FD15C4538BF0024852B40
:103D680083D14FF001099EE7C7EB0A083A4600994C
:103D78000AA85FFA88F8B8F10F0F28BF4FF00F08AC
:103D8800434601F0DDF800283CD04744FFB2BA456D
:103D98007FF46BAF1C9B1B053FF523AF1C9B13F4F3
:103DA800884F40F0A08095F833309F0700F19B8042
:103DB8001C9B5B053FF515AF1C9B580400F1B880B0
:103DC800012014E79DF82930019A990785F83320D6
:103DD80003D542F0400385F833300F99DDE90C2311
:103DE800E961C5E90423DDE91001009BC5E9020189
:103DF800002BCFD09DF82B30534505D04FF000094C
:103E08004F4632E7814630E7BDF82C30029A93429C
:103E1800F4D1002729E70323F9E6009B029312E770
:103E280096F83330002138222846C3F380130F4612
:103E38000DF11C0805F124048DF8243007F09AFBD5
:103E4800039A336A0AF11E0602F1010908222B625D
:103E5800F6B285F831205FFA89F9CDF80CA0DDF8C3
:103E680000A098E8070084E80700184601224146A8
:103E780000F014FF044600283FF4B3AE90F9003078
:103E8800002BFFF6AEAE2022002107F073FB002FB7
:103E980067D0012F55D0C7EB07130F2E4FF0C10184
:103EA8003246A3F11E0328BF0F222170DBB252B1A4
:103EB800023412B2534404EB420213F8011B24F8F3
:103EC800021BA242F9D10137FFB2BB4529D92022F2
:103ED8004146286A00F0FEFE01287FF482AE0F3EBC
:103EE800286AF6B2C2E795F8313013F0110F7FF463
:103EF80078AE1C9B5E057FF55FAF95F833309C0765
:103F08007FF56FAE002200232846FFF7D7FD002873
:103F18003FF467AE284600F01BFC00283FF461AE72
:103F28004EE7284600F07EFA61E600BF8988888857
:103F38002846D5E90423FFF7C1FD00287FF440AFE8
:103F48004FE6019BC021032263F03F03217062709A
:103F580085F833309DF80C30E370BDF80830A38045
:103F6800B1E7852323700E4B85F8309084F80190D3
:103F78001B687BB10DF117020DF11A0106A89847CD
:103F8800BDF81810BDF81A209DF8173061812281FC
:103F9800237598E745F221236381E381638292E7E1
:103FA800781901202DE9F043064695B000200D460A
:103FB80096F8311003928DF849008DF84A008DF873
:103FC8004B0029B9994695F8313013F0500F03D1B9
:103FD800002015B0BDE8F083137814462F2B35D098
:103FE8004FF00008214603AB04AA3046FFF7F8FB60
:103FF8000028EDD0039B1B78002B3CD09DF8103097
:104008002946059A3046CDF80080FFF7DBFD0028E9
:10401800DED0344606AF06F1300E2068103454F86E
:104028000C1C3D4654F8082C103754F8043C7445D1
:104038000FC5F2D1206806AD3860304600F0F2F9BD
:1040480086F8318086F83380039CCBE701340394EB
:1040580021782F29FAD0D1B106A8382200212F6A59
:10406800054607F087FA402201230E978DF849206C
:104078008DF84B30B4E79DF810302946059A304644
:10408800CDF80090FFF79EFD15B0BDE8F08338220B
:1040980030462C6A07F06EFA40230120346286F815
:1040A800313086F8330094E719B101F58961FFF7DB
:1040B80079BF0846704700BF90F8313053B930B522
:1040C80091F8314083B00D4614F0500404D12046D5
:1040D80003B030BD00207047D5E90045002504F045
:1040E8001F042C4302D0184603B030BD00921A4674
:1040F800FFF768FD03B030BD8169F8B50446006A72
:1041080001B10131012200F0FDFC012806462ED93B
:1041180001230146206A1A4600F04EFD074630B3D7
:10412800A3693BB394F83320510612D5591C8E422B
:1041380026D022F04002E16984F8332005E0206AA5
:1041480000F0FEFD294690B1A3694D1C99422A460C
:10415800F5D34FF0FF323146206A00F0F1FD30B15F
:10416800A16969B13246206A00F0EAFD40B900272A
:104178003846F8BD94F8333043F0400384F83330C0
:10418800A6613846F8BD00BF2DE9F04300F12403CD
:1041980085B090F83340054601AE93E8070086E8FD
:1041A8000700A2071BD5E969E9B9002401223146B5
:1041B800286A013400F072FD88B10378E4B203F094
:1041C8007F03037095F83030A34231D3002CEDD033
:1041D80020223146286A00F07DFD0128E6D0002023
:1041E80005B0BDE8F0836306286A1CD590F845241D
:1041F8000023D5E90289093218F1FF38D2B249F112
:10420800FF39C2F12007A2F1200428FA02F209FAC4
:1042180007F729FA04F43A432243013200F0CCFCB0
:104228000028C2D1DBE700F09DFD0028BDD1D6E70C
:1042380000232C6A85F83130204685F8333003F0A6
:1042480097FB0028CBD004F5047003F091FB0028FD
:10425800C5D0D4F8400403689B699847C0E700BFFD
:1042680090F83130D90601D40020704710B50022EB
:1042780088B000230446FFF721FC06E0202819D166
:104288009DF800301A0615D433B12022694620461D
:10429800FFF724FB0028F1D194F833300822204698
:1042A80043F0020384F8312084F83330FFF76CFFC1
:1042B80008B010BD002008B010BD00BF2DE9F04FB8
:1042C800002787B000F1240B06460DF10C08BA460A
:1042D8003C469BE8070088E8070000224146306A10
:1042E8005FFA87F900F0DAFC054630B10378C02B95
:1042F80059D0C12B2ED0852B09D096F8323000200A
:1043080043F0010386F8323007B0BDE8F08F96F825
:104318003120434B02F0370290F801A01B688280DD
:1043280083B10DF107020DF10A0102A89847BDF803
:104338000A20BDF808309DF80710AA8169752A82FD
:10434800EB816B82326A92F8103243F0010382F8F3
:1043580010322B78E103A3F18500002241EA5404CE
:10436800B0FA80F0012113FA84F340099CB20A44A0
:10437800E30303211F2A43EA540309D8AC5C012A4A
:1043880014FA83F39CB201D10028F0D10121EEE7A1
:10439800CA4526D020224146306A013700F09AFCEF
:1043A80001289AD0A9E796F8333013F0400F4378E4
:1043B80014BF43F0020323F002034370306AF1692B
:1043C800D6E904236961C5E90223D6E90223C5E9D0
:1043D800062390F8103243F0010380F810322B784E
:1043E800B8E759460122306A00F058FC002884D00A
:1043F800356A4480284603F0BBFA00283FF47DAFB5
:1044080005F5047003F0B4FA00283FF476AFD5F848
:10441800400403689B69984700283FF46EAF73E730
:104428007819012090F8312092B138B590F83320EE
:1044380011060FD4056A0446284603F099FA88B98C
:1044480094F83230002043F0010384F8323038BD4C
:104458000120704702F07F0280F83320BDE8384021
:10446800FFF72CBF05F5047003F082FA0028E7D0A7
:10447800D5F8400403689B6998470028E0D00120DC
:1044880038BD00BF2DE9F04190F831300446590697
:104498005FD48068236AD3F83C341844B0F1806F45
:1044A80002D30020BDE8F0812046FFF725FE002852
:1044B800F7D0266A96F81032DA074ED44FF0FF3359
:1044C800002506F508784FF40072C6F81C32294614
:1044D80086F81052404607F04DF8226AA76901266F
:1044E80092F84514023FD2F82C348F401F4416FA34
:1044F80001F310D0D2F84004791942460135036817
:10450800DB6998470028CCD0226A92F8453406FA2D
:1045180003F3AB42EED894F831305B0614D494F828
:104528003330002763F07F0384F83330D2F83C64DB
:10453800D4E90223D4E9040192197B418019794115
:10454800C4E90223C4E904012046BDE8F041FFF7AD
:1045580069BF006A00F0E8FC9CE706F5047003F008
:1045680007FA0028AAD19CE791F8313013F0500FD0
:1045780001D10020704730B540F6022583B013788A
:10458800044652680095FFF71DFB10B9002003B0E0
:1045980030BD1023204684F83130FFF773FF002820
:1045A800F4D0A169002200232046E161FFF786FAD2
:1045B800C123204684F8333003B0BDE83040FFF70C
:1045C80031BF00BF2DE9F043064695B000200C46E8
:1045D80096F8311003928DF849008DF84A008DF84D
:1045E8004B0029B9994694F8313013F0500F03D194
:1045F800002015B0BDE8F083137811462F2B39D071
:104608004FF0000803AB04AA3046FFF7E9F800288A
:10461800EED0039B1B78002B3AD09DF81030214632
:10462800059A3046CDF80080FFF7CCFA48B9B9F1C1
:10463800000FDDD0214604AA3046FFF795FF002879
:10464800D6D0344606AF06F1300E2068103454F840
:104658000C1C3D4654F8082C103754F8043C74459B
:104668000FC5F2D1206806AC38603046FFF744F831
:104678000399C7E7013103910B782F2BFAD0216AF0
:1046880006A8FFF799F80028B2D006AC0399B7E757
:1046980004AA21463046FFF767FF15B0BDE8F0834E
:1046A800F0B590F831409DB0002314F0180F8DF844
:1046B80031308DF832308DF833308DF869308DF81F
:1046C8006A308DF86B3003D00B6A046A9C4202D0C2
:1046D80000201DB0F0BD044640F601236846FFF7F0
:1046E80061FC0028F4D0254604F1300E0EAF28688E
:1046F800103555F80C1C3E4655F8082C103755F85F
:10470800043C75450FC6F2D1286809AA04F12403B0
:1047180038609DF8305007CA83E8070094F83330B2
:10472800204684F8305063F07F0384F83330FFF775
:1047380079FE0028CCD00021022208230EA815916A
:104748008DF86B208DF86930FFF71EFDC1E700BFBB
:1047580090F833309A0718D5F0B5C56983B08DB194
:1047680003F04003044603F0FF0683B9816900297A
:1047780042D10195C1612946206A00F0F3FA38BB9D
:10478800002000E0012003B0F0BD00207047006A5F
:10479800A16990F84524D4E90267093216F1FF3679
:1047A800D2B247F1FF37C2F1200EA2F1200326FA58
:1047B80002F207FA0EFE27FA03F342EA0E021A4340
:1047C8000132B1B1013D4B1C691A01930A440ABB7D
:1047D80094F833302046D4E9006763F07F03C4E9D6
:1047E800026784F83330C4E90467FFF71BFE03B09F
:1047F800F0BD0195E161EAE702AA006A42F8046D9A
:1048080000F094FA40B20028BADB0AD1019D002DCD
:10481800DED0B0E70023019900F0CEF90028D7D107
:10482800AEE74FF0FF32A169206A00F089FA00284C
:10483800ECD1A5E72DE9F04F90F8333083B004466A
:104848009D0700920AD494F832304FF0FF3043F0BD
:10485800010384F8323003B0BDE8F08F1A078846A8
:1048680000F10781009B002B00F017812146009D75
:104878004FF0010AF1E8062393460191206AA169E5
:10488800D0F8386406EA0B06C6F3080956BB0029B7
:1048980000F0BD8094F833305B0640F1D28090F888
:1048A8004524E3690932D4E902BCD2B21BF1FF3BCB
:1048B800C2F1200EA2F120074CF1FF3C2BFA02F2C4
:1048C8000CFA0EFE2CFA07F742EA0E023A431A4493
:1048D8009142C0F0B3802046FFF70EFC0028B2D00A
:1048E800206AA169760A0239D0F82C7490F845E458
:1048F800374401FA0EF13944B9F1000F5BD1B5F52F
:10490800007F2CBF00220122002A54D1B5F5806F08
:10491800C0F081800AFA0EFE6B0AD0F81CC2C6EB02
:104928000E06B34228BF334661454FEA432708D8ED
:104938005E18B44505D24FF0FF3680F81022C0F853
:104948001C62D0F8140242460668366AB04700284E
:104958003FF479AF38460021B844ED1BD4E9002371
:10496800D4E9046712EB000B43EB010C674508BF61
:104978005E45C4E900BC07D294F8331061F07F01AA
:10498800C4E904BC84F83310002D7FF477AF5A468D
:104998006346D4E90201994208BF904271D3404B63
:1049A8001B68002B77D094F83330009863F07F03AE
:1049B80084F833304FE7B9F1000F26D1D4E9042346
:1049C800D4E900679F4208BF964234BF01220522FE
:1049D80000F5047002F09CFF00283FF434AFC9F5DD
:1049E800007748444146AF4228BF2F46B9443A466B
:1049F80003F0E0FAB9F5007FACD1206A00F5047045
:104A080002F0B6FF0028A5D11DE70122E0E7E16921
:104A1800F1B1A16166E7D0F81C32994222D0D0F8F2
:104A2800140242460368DB69984700283FF40BAF3D
:104A38004FF4007000214FF400778DE70131A16138
:104A480050E7019A00F072F900287FF449AF42E775
:104A58002046FFF751FB00283FF4F5AEA169206A14
:104A6800E1613FE74FF0FF3380F81022C0F81C32B5
:104A7800D5E7D0E90423FFF721F800283FF4E3AE97
:104A8800F0E694F83310009861F07F01C4E902233E
:104A980084F83310DFE60098DDE6D4E9002378E7F0
:104AA8007819012038B50C46D0F82414154600F5BD
:104AB8000470002201EBD41102F02AFF40B1A400D7
:104AC800C4F3080403595A1C04D02B60012038BDD4
:104AD800FF2038BD002038BD38B50C46D0F8241466
:104AE800154600F50470012201EBD41102F010FF05
:104AF800034628B1A4000120C4F308041D5138BDA1
:104B080038BD00BF2DE9F84F804691468B460029F5
:104B180043D08F1ED8F830349F423AD207F00705A9
:104B28000123C7F3C80A03FA05F5EDB23E463C4631
:104B3800D8F82C140022404601EB143102F0E8FEAC
:104B4800C0B110F80A100AE04A4529D0A74210D08F
:104B5800D8F83024944216D213F0FF050CD0013453
:104B68000D424FEA4503A4EB0602EDD0A7422646C4
:104B7800EED10120BDE8F88F0AF1010A0125BAF546
:104B8800007FDED101E0002634464FF0000A0125FF
:104B9800CEE700270125BA46C8E7D0F82074B9E760
:104BA800BBF1000F04D1B9F1010F08BFC8F82064A8
:104BB800B01CBDE8F88F00BF2DE9F0470239154653
:104BC8009A46D0F830244B19934238D88046BAF127
:104BD800000F37D1D0F82034994238BFC0F82014DC
:104BE80001F007040122D8F82C34C1F3C80602FAF0
:104BF80004F403EB1139E4B20122494640469144DA
:104C080002F086FED8B1871900F5007017F8012B5D
:104C1800224282EA04024FEA440414BF0126002615
:104C280056450CD0013D07F8012C17D014F0FF04AD
:104C3800EED1874226464FF00104E7D1DCE7002099
:104C4800BDE8F087D0F820048342C9D98142C7D88B
:104C5800934228BF0023C8F82034C1E70120BDE8EB
:104C6800F08700BF70B582B00546002402AE46F852
:104C7800041DD5F8303401990133994202D9002036
:104C880002B070BD32462846FFF70CFF013440B22F
:104C98000028F4DBEDD1204602B070BD70B50E4699
:104CA8000446D0F8385400F5047049683368294040
:104CB800D4F82C54023B94F8454405EB5121A34009
:104CC800194402F025FE18B17368C3F308031844A9
:104CD80070BD00BF70B54C680D46D0F83834064634
:104CE800A1181C40696090F8453422440933DBB2AE
:104CF80022FA03F43CB12B7A3BB12B6801332B60C9
:104D0800013C002CF7D1012070BDD6F83034296859
:104D18000133994202D94FF0FF3070BD2A46304620
:104D2800FFF7C0FE40B20128EAD070BDD0F8303499
:104D380001338B4201D2FF207047FFF7B3BE00BF9B
:104D480001290DD9D0F830340133994210B403D970
:104D580000205DF8044B70475DF8044BFFF7BCBEBC
:104D680000207047F0B50C4683B005460F46D5F8CD
:104D7800303401339C4202D9002003B0F0BD2146F3
:104D880001AA2846FFF78EFE012C46B22146284686
:104D9800F2D9F20FF0D1D5F8303401339C42EBD878
:104DA800FFF79AFE394600230028E5D0621C284602
:104DB800019C0EB1A242DAD0D21BFFF7FDFE0028FB
:104DC800DAD0019C002ED8D02746D0E72DE9F84349
:104DD80000248046D0F82C6400F504772546314637
:104DE80000223846013602F093FD28B300F1FF3E59
:104DF800D8F830C405F580591EF8010FFF2813D0E4
:104E080048B10822012318424FEA430118BF013470
:104E1800013ACBB2F7D10835AC4509D94D45DED0BA
:104E28001EF8010FFF28EBD108350834AC45F5D83A
:104E3800C4EB0C00BDE8F883BDE8F8832DE9F04128
:104E4800002304464FF0FF3600F504771546C0F8F6
:104E5800401441601A46C4F814123846194684F8BA
:104E68004434237084F81032E660C4F81C6202F0FF
:104E78004FFD042D0DD8064658B16DB905222949B4
:104E8800F01C06F053FE034618B996F86C20092A60
:104E98001AD00020BDE8F0816B1E00EB031393F8D5
:104EA800BE2112F07F02F4D193F8C231002BF0D06A
:104EB80000EB05153846D5F8B651294602F028FD0D
:104EC80006460028DAD1E4E7326D4FF001080146C2
:104ED800204602EB050E4246C4F824E4776DC4F878
:104EE8002874B76D3D44C4F82C54F56DC4F830549B
:104EF800356EC4F8345496F86D50C4F8203405F172
:104F0800090384F8455408FA03F35D1EC4F83C34D9
:104F1800C4F83854FFF7F6FD4023404684F844347B
:104F2800BDE8F0818002002010B50446D0F83414A2
:104F3800FFF798FE94F845340933DBB2984010BD6A
:104F48004BB370B444887E2C1FD8134402300A44F3
:104F5800194412F8013BE4B2A3F16106A4F161051A
:104F6800192E94BF20260026192DA3EB060394BF03
:104F780020250025DBB2641BE4B29C4205D18A429D
:104F880006D030F8024F7E2CE3D9002070BC704761
:104F9800012070BC70470120704700BFD1B10144A7
:104FA80030B410F8014BD30343EA5202A4F1610371
:104FB800A4F12005192B98BFECB2814214FA82F2B1
:104FC80092B24FEAC23343EA520292B2E9D1104692
:104FD80030BC70471046704738B50D460446242249
:104FE800002106F0C7FAA560EB79102B08D0202B1A
:104FF80004D1402301202370A07038BD002038BDA3
:10500800202301202370A07038BD00BF024638B5A8
:1050180052F8105F04468068294601F035FC50B10B
:1050280055B123690135AB42A37818BF03F0BF031C
:1050380063F07F03A37038BDA37843F04003F7E71C
:105048002DE9F041037803F020032BB903F0FF04A6
:105058004169204B994203D900263046BDE8F081CA
:105068000546FFF7D3FF06460028F5D0A9680522B4
:105078002B698F7901F12400023B4969BB405F1815
:10508800394602F045FC80460028E5D04FF400720E
:10509800214606F06FFAAB681A79012A10D9012463
:1050A80004E0AB68E4B21A79A24209D91868E11998
:1050B800424601340368DB6998470028F1D1CBE701
:1050C8009B794FF40072696902FA03F311FA83F3CA
:1050D8006B61C2E7FFFD1F0010B5044680680A46F1
:1050E8002430A16902F014FC20B1A38803F00F0357
:1050F80000EB431010BD00BF30B590F9023083B00B
:105108000446002B19DBA56805F1240002F030FCE9
:1051180030B96378002043F00103637003B030BDF9
:1051280005F50D7002F024FC0028F2D02868036809
:105138009B6998470028ECD0F0E70121FFF7CCFFE6
:1051480005460028E5D00378E52BE2D023781B0735
:1051580001D5E369C361236A0B491A0C6B830B6899
:10516800AA8263B10DF103020DF1060101A8984767
:10517800BDF80430BDF806202B836B82EA82A37841
:1051880003F07F03A370BEE77819012010B50378F8
:10519800044623B9002301202370A37010BDFFF734
:1051A800ABFF00232370A37010BD00BF2DE9F041B1
:1051B8000C7888B014F0700F03D1002008B0BDE857
:1051C800F08140F6022305460C4601F0DFF800287E
:1051D800F3D0012210232846AA702B70FFF730FF66
:1051E8000028EAD02A692B782A62002B7FD1012176
:1051F8002846FFF771FF07460028DED01023006815
:105208007968EE46FB724FF02E0CBA6808AEFB6860
:10521800B7F81480AEE80F00BA69FB693869796994
:1052280006F820CD0DF10A0C7F8BAEE80F0033464F
:10523800202203F8012F6345FBD1A86801222B6ABD
:1052480090F806E02430023B50F8101C03FA0EF3E5
:10525800194402F05DFB86460028AED0ADF81480F4
:105268004FF02E08ADF81A7037460FCECEF8000072
:10527800CEF80410CEF80820CEF80C308DF8018056
:105288000FCECEF81000CEF81410CEF81820CEF8B5
:105298001C30236A1A0CADF81A30ADF814200FCF61
:1052A800CEF82000CEF82410CEF82820CEF82C30E6
:1052B8000FCFCEF83000CEF83410CEF83820CEF824
:1052C8003C30AC6804F1240002F052FB00283FF4A3
:1052D80074AF04F50D7002F04BFB00283FF46DAF7E
:1052E800206803689B6908B0BDE8F04118476B69FE
:1052F80033B1AB78002223F020032A616A61AB70D6
:105308002846FFF7F9FE00283FF457AF6FE700BFC4
:105318002DE9F041064692B000200C463178019202
:105328008DF824008DF825008DF8260021B99846BF
:10533800237813F0700F03D1002012B0BDE8F0817C
:10534800137810462F2B2DD0002701AA03A900F0AF
:10535800E7FD03AA214600230028EDD0019D304631
:105368002D78002D30D001F011F848B9B8F1000FB0
:10537800E2D0214603AA3046FFF718FF0028DBD009
:10538800354609AC96F800E00FCD0FC40FCD2D6857
:105398000FC42560BEF1000F12D1377009ACB77089
:1053A8000198D2E70130019003782F2BFAD0A16839
:1053B80009A8FFF711FE0028BED009AC0198C3E781
:1053C8003046FFF799FEE8E703AA21463046FFF783
:1053D800EDFE12B0BDE8F0812DE9F041064692B02D
:1053E80000200D46317801928DF824008DF82500B3
:1053F8008DF8260021B998462B7813F0700F03D149
:10540800002012B0BDE8F081137810462F2B29D068
:10541800002702E001983770B77001AA03A900F0CD
:105428007FFD03AA294600230028E9D0019C3046C5
:10543800247834B300F0AAFF354609AC0028DFD041
:1054480096F800E00FCD0FC40FCDD5F800C009AD18
:105458000FC4C4F800C0BEF1000FDBD03046FFF720
:105468004BFED7E70130019003782F2BFAD08BB190
:10547800A96809A8FFF7B0FD0028C1D009AD0198B7
:10548800C6E7434603AA2946304600F07FFF12B01C
:10549800BDE8F081A9683046FFF79EFDB1E700BF7F
:1054A80019B101F24441FFF797BF0846704700BFA2
:1054B80003780BB100207047FFF78EBD2DE9F04F40
:1054C800837883B00546DF0740F190800F46017866
:1054D80091460E0700F193808C0608D582684369CF
:1054E8001289C3EB42139BB2994528BF9946B9F17B
:1054F800000F00F0AA806B6988064E464FF000083E
:1055080005F1100AAA68C3F3080440D5116A01EB33
:105518005321002C54D1B6F5007F51D3136B994217
:105528004ED0B6F5806F73D328784FEA562B800695
:1055380005D41079C8EB0000834528BF83469942FB
:105548004FEA4B240DD801EB0B00834209D202F13C
:1055580024000191009202F00BFA009A01990028A8
:1055680044D0906A5B463A46D0F800E0DEF810B0C6
:10557800D84700283AD06B69361B274423446B610F
:1055880063D02978C3F30804AA688806BED492F8C1
:10559800058008EA5328002C38D1B8F1000F35D11E
:1055A800002B3FD148064CBF136A2B6A2B619179B7
:1055B800023B50698B4008EB00011944002CAAD02B
:1055C80002F12400002202F0A3F978B1C4F50073B7
:1055D80001193846B34228BF33461A461C4602F022
:1055E800E9FCC8E72B7813F0700F2FD16B784FF0D8
:1055F800FF3043F002036B7003B0BDE8F08FC3695E
:1056080042699B1A994528BF994670E72B69CEE7EE
:10561800906A3A460368DB6898470028E6D04FF45A
:105628000074A8E7090705D5AB785B0602D52B6996
:105638000133BBE710462969524601F0B9F8002842
:10564800D4DBCFD0AA682B69B1E70026C6EB0900E6
:1056580003B0BDE8F08F00BF70B582B001220446E8
:1056680046690DF107010569FFF728FF0128666102
:105678000CBF9DF807004FF0FF30256102B070BDE8
:10568800436930B5C3F3431583B00446B5FA85F2D0
:1056980052098A4207D220334361A068343000EBB4
:1056A800451003B030BD01220DF10701FFF706FFD9
:1056B80040B2012803D163691F336361EDE700201D
:1056C800EFE700BF2DE9F04305789BB0002415F003
:1056D800180F8DF820408DF821408DF822408DF864
:1056E80044408DF845408DF8464004D0866803460E
:1056F8008D68AE4203D000201BB0BDE8F0831D4684
:1057080090460E46FFF7F8FCAE4611AFBEE80F0014
:105718000FC7BEE80F00DEF800E00FC72146284695
:10572800C7F800E0FFF7D8FC86460028E3D00068F9
:105738006F46DEF80410DEF80820DEF80C3095F825
:1057480000C00FC70CF0080CDEF81000DEF81410CB
:10575800DEF818200CF0FF09DEF81C300FC7BCF18A
:10576800000F00F096804246314640F6012308A813
:10577800FFF732FE0028BED00E9A0026BDF824306E
:105788000121AA612846AB809DF823200B9BEA7073
:10579800EB608DF820608DF82260FFF79DFC0028F3
:1057A800A9D01AAB9DF80B2053F85B7DC272D3F8D1
:1057B80004E0C0F80D709F68C0F811E0C0F81570DB
:1057C800D3F80CE01F8A9B7CC0F819E0A0F81D7084
:1057D800C377002C3BD0AF68A31E3246BE7907F1D1
:1057E80024007969B340194402F092F8002882D065
:1057F80006466F4656F8200F7168B268F3680FC7FF
:1058080030697169B269F3690FC72146A86801F068
:105818007DF800283FF46FAFA96801222B6A8C79C4
:1058280001F12400023B4969A340194402F070F8D1
:10583800074600283FF45FAF6C460FCC38627962A8
:10584800BA62FB620FCC38637963BA63FB630021E9
:105858000222082311A819918DF846208DF84430AA
:1058680000F0A0FC00283FF446AFAC6804F1240027
:1058780002F07EF800283FF43EAF04F50D7002F008
:1058880077F800283FF437AF206803689B6998478A
:1058980032E74B464246314608A8FFF739FD002853
:1058A8003FF429AF109C67E70378DA061AD54369F5
:1058B80010B5044633B18378002223F02003026137
:1058C8004261837001212046FFF7DAFE60B1037858
:1058D8006BB1E52BF6D02E2BF4D0C37A1B07F1D48D
:1058E800002010BD002070476378002BF8D1A37802
:1058F8000822204643F002032270A370BDE810403E
:1059080000F050BC2DE9F041037804460769B3B1B3
:105918000D464169A9422CD045B98378056123F029
:10592800200365610120A370BDE8F08118070AD43F
:105938009A060BD5A3681B89B5EB431F30D927619D
:105948000020BDE8F081E2699542F8D8D4F808E073
:105958006E1EA2789EF8060012F0400F00F10900B2
:10596800C0B226FA00F607D0216A13460E44266113
:10597800D5E70120BDE8F0814A1E22FA00F08642F0
:1059880010D379B1361A04F1100806E02169013EF6
:10599800A06800F00DFF0028D1DD4246002EF5D1A9
:1059A800A378BCE75B064CBFDEF82030236A23618E
:1059B800E9E700BF2DE9F0410D4690460021242279
:1059C80004461F469DF8186005F0D4FDA86808F045
:1059D8000F03296A00F13402A060E16002EB431270
:1059E800A4F80480D17A0D0711D401F017012170B1
:1059F800D37A13F0180F02D141F00801217007F093
:105A08000303E670012B08D0022B2AD023B300230E
:105A180023701846A370BDE8F0810223A370217893
:105A280011F0110FF3D159B207F4806507F008039C
:105A38000B43DBB2A370B2F814E0518B066B41EA5A
:105A48000E41A66185B1D1B963F07F03A3707B04D1
:105A58000ED40120BDE8F08117F48065D7D101216B
:105A6800E4E70323A370DAE72162D369E361EEE791
:105A7800E1692046FFF746FF0028EAD1C7E700F0B2
:105A880045FF0028C3D0A378DEE700BF03781BB921
:105A98000B7813F0700F01D1002070472DE9F04703
:105AA8004E6982B016F01F0721D191460D468046F7
:105AB800BA460DE0A3F1E502B2FA82F2520982B9C0
:105AC800C17A11F0080F1DD00F2914D017466E693E
:105AD80000212846FFF7D4FD48B103783BB12E2BAF
:105AE800E8D10027F3E700F077F950450CD0002003
:105AF80002B0BDE8F0875A06E9D503F01F0790F811
:105B08000DA0E4E7002FEED100974B46C6F34F12E5
:105B180029464046FFF74EFFEAE700BF03780BB17E
:105B2800FFF7EABA0120704783789B071AD5036A02
:105B3800B3B1016910B5044682B0F1B901930162AD
:105B48001946A06800F0E2FEA8B1A378616963F085
:105B58007F032278E161A370EAB9012002B010BD89
:105B680001207047002070476FF070422169A068DB
:105B780000F056FE58B90020F0E7002302AA80681A
:105B880042F8043D00F014FE0028F4DBECD1019B40
:105B9800002BDAD0D4E72046FFF7AEFADEE700BFE5
:105BA8002DE9F84F837804469D0707D463784FF0B2
:105BB800FF3043F001036370BDE8F88F90461A0781
:105BC8000F4600F1D1806269D3439845EED8B8F109
:105BD800000F00F0D08046464FF0000A4FF0FF3922
:105BE8003DE0BBF1000F41D12169002973D0A378B2
:105BF8005B0640F19180E369934240F28D804B1C33
:105C08000139236190F806E0436901FA0EF12B444B
:105C18001944B6F5007F3CD2B6F5007F354628BF5B
:105C28004FF40075E369934202D9A3789B062ED5F9
:105C38000522243001F06CFE0028B7D05844AB444C
:105C48002A46394602F0B6F9BBF5007F00F0848099
:105C58006269761B2F442A44626100F08C80A06838
:105C6800C2F3080B457915EA5225BAD0236990F892
:105C780006E0991E436901FA0EFEE9187144BBF16A
:105C8800000FC6D0CBF50075B54228BF35460122B6
:105C9800CFE7B6F5806F31D390F804E0730A026B52
:105CA800C5EB0E05AB4228BF2B468A424FEA432577
:105CB80007D303EB010E724503D280F824A0C0F885
:105CC8003090806A3A46D0F800E0DEF820B0D84735
:105CD8000028BDD16AE7216A79B321610239827946
:105CE8004369B6F5007F01FA02F11944D1D2CBF528
:105CF80000756269B54228BF354693E7036B8B424E
:105D080025D0806A3A460368DB69984700283FF443
:105D18004DAF4FF400759BE704F1100200F048FD09
:105D28000028FFF643AF05D12046FFF76FF900289A
:105D38003FF43CAF2169A068D0E72046FFF766F939
:105D480000283FF433AF2169A0682162C6E780F8D4
:105D580024A0C0F83090D4E7A068243001F008FEF1
:105D680000287FF475AF21E7C169FFF7CBFD002854
:105D78003FF41CAF27E7E369934209D30A4B1B683A
:105D880073B1A378404663F07F03A370BDE8F88F32
:105D9800A3784046E26163F07F03A370BDE8F88F03
:105DA8004046BDE8F88F00BF7819012004290BD9B7
:105DB8000A2905D90C290CD800EB4101C88870477D
:105DC80000EB41018888704700EB4101B1F8010000
:105DD80070470020704700BF10B404460020621EC0
:105DE8000A34430812F8011F43EAC010944251FADA
:105DF80080F0C0B2F5D15DF8044B704738B5CB6878
:105E080073B10C4624220021054605F0B3FB10238C
:105E180001202B70A870A268E368AA602B6238BDC5
:105E28008968BDE83840FFF743BB00BF2DE9F04F54
:105E380000238DB09146027888468DF80C308DF895
:105E48000D308DF80E30002A5AD0B9F10C0F8CBFE6
:105E580000240124002C53D1C3780746002B55D0C9
:105E6800394603A8FFF7CAFF002849D0FB78002B62
:105E780046D0012609F1FF350194B98803A8891B8A
:105E88004901FFF73FFD00283AD0002103A8FFF79A
:105E9800F7FB8346A0B3C37A0F2B31D1037803F005
:105EA8001F039E422CD1731E03EB430403EB8404AF
:105EB800234608EB040A04F10D02191B5846C9B21F
:105EC800FFF774FF3F2130B39D4224D97E2803F1A8
:105ED800010398BFC1B293420AF8011BEDD1914565
:105EE8009DF8043098BF2A4608F8023042B19BF862
:105EF80000305B0611D40136FB78F6B2B342BCD24F
:105F0800002088F800000DB0BDE8F08F00F00CFC10
:105F18000DB0BDE8F08F1A46E1E71046F3E700BF81
:105F28002DE9F04F0378202B03D110F8013F202BE7
:105F3800FBD0886003782F2B00F02281002B00F023
:105F48001F815C2B25D0A3F12204E4B21A2C23D99B
:105F5800461C0025DFF848E203E01A2C2EFA04F765
:105F680022D9A3F13E040135A3F1200CB046012C3F
:105F78002F460ED97C2B0CD0BCF15E0F09D816F831
:105F8800013BA3F122042F2BE4B212D08BB15C2B7E
:105F9800E3D10020BDE8F08F814D25FA04F4E50730
:105FA800D6D50020BDE8F08FFC07DAD50020BDE883
:105FB800F08F202B02D02F2B40F0DF806B1C034486
:105FC8001E4613F8014B202CFAD02F2CF8D016605F
:105FD800B5B1074417F8013C202B01D02E2B0AD16C
:105FE8006B1EC4181D465BB114F8012D013B2E2A07
:105FF800F8D0202AF6D0FF2DCBDC2F466C1E02E00D
:106008004FF0FF342F4601F10C0301F1170620224F
:106018004F6003F8012FB342FBD103782E2B02D037
:10602800202B40F0A6800646002316F8012F0133E6
:106038002E2AFAD0202AF8D04FF0000E621C0BD07E
:10604800065D02192E2E04D106E012F8016D2E2EDF
:1060580002D014F1FF34F8D29D424FF0000940F30A
:106068009C804FF0070C4FF008084E46CA46C25CA9
:10607800202A03D02E2A17D19C4215D04FF0000EAB
:106088000133AB42F3DB4B7B202B82D0BEF1000FF8
:1060980057D01AEA090F4FF0010018BF4FF0020954
:1060A80081F80090BDE8F08F222A07D07C2A05D01D
:1060B800A2F12A07052F14D82D2A12D09C421CD0F1
:1060C800664594BF00220122A2BB96465F22771C38
:1060D80001EB060BFEB28BF80D20062ED0D80E73FE
:1060E800CEE7A2F13A07052FE8D9A2F15B07022F04
:1060F800E4D9A2F121075D2FE0D89C420AD0664579
:1061080008D8A2F16107192F2CD8203A48EA0909C2
:10611800D2B2DCE7BCF10A0F0FD09C421BD09C42E4
:106128000BDB23464FF00A0C08264FF010084FF0FF
:10613800000EA5E7BCF10A0FF1D14B7B202B3FF4F1
:1061480028AF0B7B01207E2431220B4408705C733E
:106158009A73BDE8F08F23464FF00A0C08264FF0DB
:1061680010088DE7A2F14107192FB0D848EA0A0AAA
:10617800ADE74FF0010E002360E7C2F8008028E782
:106188002F2B4FF0000701D0202B01D13D4615E7FA
:1061980010604FF0FF343D4635E7CA4673E700BF4D
:1061A800010100052DE9F04182788AB000239207A9
:1061B8008DF804308DF805308DF8063022D5016A47
:1061C800054621BB01212846FEF786FFD0B1411EB6
:1061D80000F10A070024620811F8016F42EAC413AB
:1061E8008F4256FA83F3DCB2F5D14FF0E50800236D
:1061F80080F80080AE682B7006F12400AB7001F0C7
:10620800B7FB50B9002630460AB0BDE8F081806877
:1062180000F07CFB0028D5D1F4E706F50D7001F0FD
:10622800A7FB0028EED0306803689B6998470646AC
:106238000028E7D0EB78002BE5D0294601A8FFF726
:10624800DDFD0028DED0EB78002BDBD001271FE036
:1062580001A8FFF715FA7B1C0028D3D0C27A0F2AB1
:10626800D0D1027802F01F018F42DFB2CAD1437B3E
:10627800A342C7D180F80080A96891F8243043F080
:10628800010381F8243053060CD4EB78BB42B9D310
:10629800A98801A8C91B4901FFF734FB0021002880
:1062A800D6D1AFE7AC6804F1240001F061FB002807
:1062B800A8D004F50D7001F05BFB0028A2D020687F
:1062C80003689B69984700289CD09CE72DE9F84310
:1062D8000E4604464FF002084FF07E090F7B01F18D
:1062E8000D057068B16808EB00039BB248B108441B
:1062F80011F8012B03EB4313884283EA02039BB294
:10630800F6D1032F28BF03273A1DD2B203F00F019D
:1063180002F1FF3E1B09092901F1370098BF01F17D
:106328003000B1185FFA8EF248739742EED3F31932
:106338000021204683F80D90FFF7E4FA012120465A
:10634800FFF79EF90B220346B0B190F800E0014632
:106358002846BEF1000F15D0DB7A1B07EED405F0F6
:1063680073F80028EAD108F101081FFA88F8B8F193
:10637800640FB6D1BDE8F8836078B0FA80F04009C0
:10638800BDE8F8830120BDE8F88300BF2DE9F04F90
:106398000C788DB014F0700F01D004781CB1002077
:1063A8000DB0BDE8F08F1478D2F804A0A40748D146
:1063B80001274FF000090E46079302F10D030990DB
:1063C80049463046934604934C46CDF81890C84643
:1063D800CDF80C90CDF81490FFF794FA7569012167
:1063E8003046FFF74DF9C5F34F150346002800F076
:1063F800B4800278A2F1E501B1FA81F14909002AD5
:1064080035D0002933D1BC4238BF00242E2A2BD0E6
:1064180051BBD87A0F285DD0020725D4B8F1000FF8
:1064280040F05E8118460B22049905F00DF800280B
:10643800D4D19BF80030D80740F167810123059338
:10644800CCE70AF10C04B64FA7FB0447BF08013795
:10645800FFB2AEE703980138C0B28242039003D17D
:106468005A7B0698904241D04FF00008B6E7002CBE
:1064780008BFA946BC4201D20134E4B2002AC5D102
:10648800079A13469A058AD503F00303013B012BAB
:1064980085D8002C08BFA946BC4203D36AE0DCB209
:1064A800A74267D900213046FFF7EAF8631C0028A5
:1064B800F5D173782BB172E7B368E4B21B79012B7D
:1064C80058D8A74256D930461034FEF7B9FD0028EF
:1064D800F2D164E7B8F1000FBCD151067FF57EAF69
:1064E80002F01F085A7BCDF80C800692039A013AF5
:1064F80002EB420502EB8505AA452A46B4D905F107
:106508000D01CDF82080884615E0BCF1190F01F186
:10651800200098BFC1B2DBF80800825CA2F14100FC
:1065280002F1200C192898BF5FFA8CF291429BD196
:10653800C64572461BD0511B1846C9B2FFF736FC38
:10654800924502F1010EC1B200F0C380FF28A1F10B
:10655800410CDAD94FF0000840E77378002B7FF43C
:106568001EAF079A13469A057FF519AF8CE7DDF839
:10657800208033E7059B33B159463046FFF7A6FE26
:1065880000283FF40CAF4FEA49113046FFF7BAF93B
:1065980000283FF404AF013F17F0FF0858D048F037
:1065A800400347460024DBB2039300213046FFF73F
:1065B80067F800283FF4F3AED6F808C0B845039B47
:1065C8004FF00F099CF824E014BF3A461A460BF125
:1065D8000C014EF0010E0BF1170500238CF824E096
:1065E8000473027080F80B904FEA530E11F801CF34
:1065F8004EEAC313A9425CFA83F3DBB2F4D102F08A
:106608001F024373011DDBF80850013A448300233D
:1066180002EB420002EB800209E00A2B94BF0880DB
:106628004880013301320231DBB20D2B0CD0924588
:1066380014BF4FF0FF3000208CBFA85C80B2042B41
:10664800EBD821F8030CECE7013F17F0FF07ACD1BA
:10665800756900213046FFF713F8C5F34F15044656
:1066680000283FF49CAE2022002104F083FF5B4603
:106678002C4A53F80D0F59682060616019899B7A7C
:106688002181A3729BF80030176803F01803237365
:10669800002F3ED00DF12B020DF12E010BA8B847AB
:1066A800BDF82C10BDF82E209DF82B302182E281F8
:1066B8006373B26892F8243043F0010382F82430FF
:1066C800CDF800802A46079B31460998FFF772F9F2
:1066D80066E60028DDF8208018BF4FF000087DE648
:1066E800039A012A7FF45BAE5C1E0A460A335008FF
:1066F80014F8011F40EAC2129C4251FA82F2D2B247
:10670800F5D1069B93427FF44AAE079B1905D7D56E
:1067180045E645F22123238223836382C9E700BF2C
:106728004FECC44E781901202DE9F04103780E464C
:106738004BB113F060040BD02F22002301200A7004
:106748004B70BDE8F081002318463370BDE8F08136
:106758002146FEF7C1FC0028F5D02146451E4FF022
:10676800080C4FF02E0815F8013F202B10D00829EF
:1067780016D0A3F14102671C192A07D8027B03F13E
:10678800200E1CEA020F18BF5FFA8EF33355FCB2D5
:1067980001310B29E7D1002320463355BDE8F081AC
:1067A800621C06F804804FF0100C2B78D4B2E0E796
:1067B800012932D9C36999422FD870B5C3791646D1
:1067C80005460C46202B19D0102B14D18369C1F330
:1067D8000721022200F50D70194401F099F850B113
:1067E800E1B230F81130EA69934202D833600120EF
:1067F80070BD002070BD4FF0FF3070BD816902226E
:1068080000F50D7001EBD41101F082F80028F2D0E8
:1068180004F07F0150F82130E5E74FF0FF30704772
:1068280001291DD938B5C369994206D8C3791546D7
:106838000C46202B16D0102B01D0002038BD8369C0
:10684800C1F3072100F50D700322194401F060F827
:1068580003460028F1D0E1B2012023F8115038BDD9
:10686800002070478169032200F50D7001EBD411F7
:1068780001F04EF803460028DFD004F07F01012024
:1068880043F8215038BD00BF2DE9F041C46882B0FB
:1068980005460F468C42904635D20C4600260134F8
:1068A800EB6901AA28469C42214608D936BBEC6808
:1068B800012601AA284601349C422146F6D8A7425F
:1068C8001CD0FFF775FF002818DBE8D0019B002BD0
:1068D800E5D106B1EC606FF0704221462846FFF71B
:1068E8009FFF064650B117B9C8F8004007E039467F
:1068F80028462246FFF794FF0028F5D100263046A7
:1069080002B0BDE8F0810126C9E700BF70B50546B1
:1069180082B00C4609E0FFF783FF621E80B1EB6886
:106928009C42019C38BFEA605EB101AA2146284614
:10693800FFF73EFF061E21464FF000022846EADA1E
:10694800002002B070BD00BF2DE9F041C379C269D3
:10695800202B02F1010805D0102B03D04FF0FF3097
:10696800BDE8F0818569B8F1000F3DD0064600F515
:106978000D770024294602223846013500F0C8FF69
:106988000028EBD0F379102B15D0B8F17F0F27D959
:1069980080210A46013A031F92B200EB820053F8A5
:1069A800042F02B901348342F9D1B8EB0108E1D1CF
:1069B8002046BDE8F081B8F1FF0F18D81FFA88F318
:1069C80041465A1E831E92B200EB420033F8022F52
:1069D80002B901349842F9D1B8EB0108CAD1E7E706
:1069E8001FFA88F24146D5E74046BDE8F0814FF4EA
:1069F80080710B46E5E700BFF8B5044600234FF069
:106A0800FF30012521601646A162C4F83812E560FE
:106A1800E37184F8243084F834322063C4F84002E7
:106A2800DAB1042A01D90020F8BD04F124051A4678
:106A38001946284600F06CFF6FF0704300F5DF71CF
:106A480033441B01CA180028EDD010790028EAD079
:106A5800CB5C5B06E7D1966801E004F12405284683
:106A68000022314600F054FF0028DCD0037C022BC2
:106A7800D9D1B0F80B30B3F5007FD4D1427B0025D3
:106A8800531E012A2271A57163710FD00125294671
:106A980000E01D4649006B1CC9B2DBB28A4204D033
:106AA800092BF6D1A5710020F8BDA571C78A276109
:106AB8000FB9476A2761B0F81110C3894A012181CB
:106AC800334402F2FF1203EB4701A361B0F813301D
:106AD80001EB622221626261B3B1B61A40F6F47228
:106AE800334423FA05F56B1C9542E36111D94FF63F
:106AF800F4739D420AD9C26A20232262E371E762D5
:106B08000120C4F83C72F8BD036AE6E71023E3717C
:106B1800F5E70C230020E371F8BD00BFF8B50025A8
:106B280006460F4685638C6BC5638CB101462420ED
:106B380000F0BAF80570457004468570B063BD6B07
:106B48000FCD0FC40FCD0FC42B6823603046F8BD9E
:106B5800CB6B002BFAD00146382000F0A5F880F85E
:106B6800314080F83240024680F83340F063FB6BD6
:106B780003F130011F68103353F80C5C103253F8DE
:106B8800084C53F8040C8B4242F8107C42F80C5C19
:106B980042F8084C42F8040CECD11B681360D5E7A6
:106BA80010B50446806B28B1FEF7F0FA10B1002347
:106BB800A36310BDE06B28B1FCF79EFD10B1002364
:106BC800E36310BD002010BDC9B32DE9F0410C46A8
:106BD800054698461746FFF7E3FFD4F88064AEB140
:106BE80000262946242000F05FF8434606703A46FE
:106BF80046708670A863D4F88014FEF751FC10B173
:106C08000120BDE8F081A863BDE8F081D4F88434A0
:106C1800BBB12946382000F047F8434680F8316078
:106C28003A4680F8326080F83360E863D4F8841418
:106C3800FDF73AFA0028E3D1E863BDE8F0810020C7
